{
  "_format": "hh-sol-artifact-1",
  "contractName": "PAINT_ON_CHAIN",
  "sourceName": "contracts/PaintOnChain.sol",
  "abi": [
    {
      "inputs": [],
      "stateMutability": "nonpayable",
      "type": "constructor"
    },
    {
      "anonymous": false,
      "inputs": [
        {
          "indexed": true,
          "internalType": "address",
          "name": "owner",
          "type": "address"
        },
        {
          "indexed": true,
          "internalType": "address",
          "name": "approved",
          "type": "address"
        },
        {
          "indexed": true,
          "internalType": "uint256",
          "name": "tokenId",
          "type": "uint256"
        }
      ],
      "name": "Approval",
      "type": "event"
    },
    {
      "anonymous": false,
      "inputs": [
        {
          "indexed": true,
          "internalType": "address",
          "name": "owner",
          "type": "address"
        },
        {
          "indexed": true,
          "internalType": "address",
          "name": "operator",
          "type": "address"
        },
        {
          "indexed": false,
          "internalType": "bool",
          "name": "approved",
          "type": "bool"
        }
      ],
      "name": "ApprovalForAll",
      "type": "event"
    },
    {
      "anonymous": false,
      "inputs": [
        {
          "indexed": true,
          "internalType": "address",
          "name": "previousOwner",
          "type": "address"
        },
        {
          "indexed": true,
          "internalType": "address",
          "name": "newOwner",
          "type": "address"
        }
      ],
      "name": "OwnershipTransferred",
      "type": "event"
    },
    {
      "anonymous": false,
      "inputs": [
        {
          "indexed": true,
          "internalType": "address",
          "name": "from",
          "type": "address"
        },
        {
          "indexed": true,
          "internalType": "address",
          "name": "to",
          "type": "address"
        },
        {
          "indexed": true,
          "internalType": "uint256",
          "name": "tokenId",
          "type": "uint256"
        }
      ],
      "name": "Transfer",
      "type": "event"
    },
    {
      "inputs": [
        {
          "internalType": "address",
          "name": "to",
          "type": "address"
        },
        {
          "internalType": "uint256",
          "name": "tokenId",
          "type": "uint256"
        }
      ],
      "name": "approve",
      "outputs": [],
      "stateMutability": "nonpayable",
      "type": "function"
    },
    {
      "inputs": [
        {
          "internalType": "address",
          "name": "owner",
          "type": "address"
        }
      ],
      "name": "balanceOf",
      "outputs": [
        {
          "internalType": "uint256",
          "name": "",
          "type": "uint256"
        }
      ],
      "stateMutability": "view",
      "type": "function"
    },
    {
      "inputs": [
        {
          "internalType": "uint256",
          "name": "tokenId",
          "type": "uint256"
        }
      ],
      "name": "burnToken",
      "outputs": [],
      "stateMutability": "nonpayable",
      "type": "function"
    },
    {
      "inputs": [
        {
          "internalType": "uint256",
          "name": "tokenId",
          "type": "uint256"
        }
      ],
      "name": "generateImageData",
      "outputs": [
        {
          "internalType": "string",
          "name": "",
          "type": "string"
        }
      ],
      "stateMutability": "view",
      "type": "function"
    },
    {
      "inputs": [
        {
          "internalType": "uint256",
          "name": "tokenId",
          "type": "uint256"
        }
      ],
      "name": "getApproved",
      "outputs": [
        {
          "internalType": "address",
          "name": "",
          "type": "address"
        }
      ],
      "stateMutability": "view",
      "type": "function"
    },
    {
      "inputs": [],
      "name": "getAuthContractAddress",
      "outputs": [
        {
          "internalType": "address",
          "name": "",
          "type": "address"
        }
      ],
      "stateMutability": "view",
      "type": "function"
    },
    {
      "inputs": [],
      "name": "getNumberOfTokensBurned",
      "outputs": [
        {
          "internalType": "uint256",
          "name": "",
          "type": "uint256"
        }
      ],
      "stateMutability": "view",
      "type": "function"
    },
    {
      "inputs": [],
      "name": "getNumberOfTokensCreated",
      "outputs": [
        {
          "internalType": "uint256",
          "name": "",
          "type": "uint256"
        }
      ],
      "stateMutability": "view",
      "type": "function"
    },
    {
      "inputs": [],
      "name": "getWalletTokenBalance",
      "outputs": [
        {
          "internalType": "uint256",
          "name": "",
          "type": "uint256"
        }
      ],
      "stateMutability": "view",
      "type": "function"
    },
    {
      "inputs": [
        {
          "internalType": "address",
          "name": "owner",
          "type": "address"
        },
        {
          "internalType": "address",
          "name": "operator",
          "type": "address"
        }
      ],
      "name": "isApprovedForAll",
      "outputs": [
        {
          "internalType": "bool",
          "name": "",
          "type": "bool"
        }
      ],
      "stateMutability": "view",
      "type": "function"
    },
    {
      "inputs": [
        {
          "internalType": "address",
          "name": "to",
          "type": "address"
        },
        {
          "internalType": "string",
          "name": "_name",
          "type": "string"
        },
        {
          "internalType": "string",
          "name": "_description",
          "type": "string"
        },
        {
          "internalType": "string",
          "name": "_image",
          "type": "string"
        },
        {
          "internalType": "string",
          "name": "_attributes",
          "type": "string"
        }
      ],
      "name": "mint",
      "outputs": [],
      "stateMutability": "nonpayable",
      "type": "function"
    },
    {
      "inputs": [],
      "name": "name",
      "outputs": [
        {
          "internalType": "string",
          "name": "",
          "type": "string"
        }
      ],
      "stateMutability": "view",
      "type": "function"
    },
    {
      "inputs": [],
      "name": "owner",
      "outputs": [
        {
          "internalType": "address",
          "name": "",
          "type": "address"
        }
      ],
      "stateMutability": "view",
      "type": "function"
    },
    {
      "inputs": [
        {
          "internalType": "uint256",
          "name": "tokenId",
          "type": "uint256"
        }
      ],
      "name": "ownerOf",
      "outputs": [
        {
          "internalType": "address",
          "name": "",
          "type": "address"
        }
      ],
      "stateMutability": "view",
      "type": "function"
    },
    {
      "inputs": [],
      "name": "renounceOwnership",
      "outputs": [],
      "stateMutability": "nonpayable",
      "type": "function"
    },
    {
      "inputs": [
        {
          "internalType": "address",
          "name": "from",
          "type": "address"
        },
        {
          "internalType": "address",
          "name": "to",
          "type": "address"
        },
        {
          "internalType": "uint256",
          "name": "tokenId",
          "type": "uint256"
        }
      ],
      "name": "safeTransferFrom",
      "outputs": [],
      "stateMutability": "nonpayable",
      "type": "function"
    },
    {
      "inputs": [
        {
          "internalType": "address",
          "name": "from",
          "type": "address"
        },
        {
          "internalType": "address",
          "name": "to",
          "type": "address"
        },
        {
          "internalType": "uint256",
          "name": "tokenId",
          "type": "uint256"
        },
        {
          "internalType": "bytes",
          "name": "data",
          "type": "bytes"
        }
      ],
      "name": "safeTransferFrom",
      "outputs": [],
      "stateMutability": "nonpayable",
      "type": "function"
    },
    {
      "inputs": [
        {
          "internalType": "address",
          "name": "operator",
          "type": "address"
        },
        {
          "internalType": "bool",
          "name": "approved",
          "type": "bool"
        }
      ],
      "name": "setApprovalForAll",
      "outputs": [],
      "stateMutability": "nonpayable",
      "type": "function"
    },
    {
      "inputs": [
        {
          "internalType": "address",
          "name": "_contractAddress",
          "type": "address"
        }
      ],
      "name": "setAuthContractAddress",
      "outputs": [],
      "stateMutability": "nonpayable",
      "type": "function"
    },
    {
      "inputs": [
        {
          "internalType": "bytes4",
          "name": "interfaceId",
          "type": "bytes4"
        }
      ],
      "name": "supportsInterface",
      "outputs": [
        {
          "internalType": "bool",
          "name": "",
          "type": "bool"
        }
      ],
      "stateMutability": "view",
      "type": "function"
    },
    {
      "inputs": [],
      "name": "symbol",
      "outputs": [
        {
          "internalType": "string",
          "name": "",
          "type": "string"
        }
      ],
      "stateMutability": "view",
      "type": "function"
    },
    {
      "inputs": [
        {
          "internalType": "uint256",
          "name": "index",
          "type": "uint256"
        }
      ],
      "name": "tokenByIndex",
      "outputs": [
        {
          "internalType": "uint256",
          "name": "",
          "type": "uint256"
        }
      ],
      "stateMutability": "view",
      "type": "function"
    },
    {
      "inputs": [
        {
          "internalType": "address",
          "name": "owner",
          "type": "address"
        },
        {
          "internalType": "uint256",
          "name": "index",
          "type": "uint256"
        }
      ],
      "name": "tokenOfOwnerByIndex",
      "outputs": [
        {
          "internalType": "uint256",
          "name": "",
          "type": "uint256"
        }
      ],
      "stateMutability": "view",
      "type": "function"
    },
    {
      "inputs": [
        {
          "internalType": "uint256",
          "name": "tokenId",
          "type": "uint256"
        }
      ],
      "name": "tokenURI",
      "outputs": [
        {
          "internalType": "string",
          "name": "",
          "type": "string"
        }
      ],
      "stateMutability": "view",
      "type": "function"
    },
    {
      "inputs": [
        {
          "internalType": "uint256",
          "name": "",
          "type": "uint256"
        }
      ],
      "name": "tokens",
      "outputs": [
        {
          "internalType": "string",
          "name": "name",
          "type": "string"
        },
        {
          "internalType": "string",
          "name": "description",
          "type": "string"
        },
        {
          "internalType": "string",
          "name": "image",
          "type": "string"
        },
        {
          "internalType": "string",
          "name": "attributes",
          "type": "string"
        }
      ],
      "stateMutability": "view",
      "type": "function"
    },
    {
      "inputs": [],
      "name": "totalSupply",
      "outputs": [
        {
          "internalType": "uint256",
          "name": "",
          "type": "uint256"
        }
      ],
      "stateMutability": "view",
      "type": "function"
    },
    {
      "inputs": [
        {
          "internalType": "address",
          "name": "from",
          "type": "address"
        },
        {
          "internalType": "address",
          "name": "to",
          "type": "address"
        },
        {
          "internalType": "uint256",
          "name": "tokenId",
          "type": "uint256"
        }
      ],
      "name": "transferFrom",
      "outputs": [],
      "stateMutability": "nonpayable",
      "type": "function"
    },
    {
      "inputs": [
        {
          "internalType": "address",
          "name": "newOwner",
          "type": "address"
        }
      ],
      "name": "transferOwnership",
      "outputs": [],
      "stateMutability": "nonpayable",
      "type": "function"
    },
    {
      "inputs": [],
      "name": "walletHoldsAuthToken",
      "outputs": [
        {
          "internalType": "bool",
          "name": "",
          "type": "bool"
        }
      ],
      "stateMutability": "view",
      "type": "function"
    }
  ],
  "bytecode": "0x60806040526000600d556000600e553480156200001b57600080fd5b506040518060400160405280600e81526020017f5041494e54204f4e20434841494e0000000000000000000000000000000000008152506040518060400160405280600c81526020017f5041494e544f4e434841494e00000000000000000000000000000000000000008152508160009080519060200190620000a0929190620001b0565b508060019080519060200190620000b9929190620001b0565b505050620000dc620000d0620000e260201b60201c565b620000ea60201b60201c565b620002c5565b600033905090565b6000600a60009054906101000a900473ffffffffffffffffffffffffffffffffffffffff16905081600a60006101000a81548173ffffffffffffffffffffffffffffffffffffffff021916908373ffffffffffffffffffffffffffffffffffffffff1602179055508173ffffffffffffffffffffffffffffffffffffffff168173ffffffffffffffffffffffffffffffffffffffff167f8be0079c531659141344cd1fd0a4f28419497f9722a3daafe3b4186f6b6457e060405160405180910390a35050565b828054620001be9062000260565b90600052602060002090601f016020900481019282620001e257600085556200022e565b82601f10620001fd57805160ff19168380011785556200022e565b828001600101855582156200022e579182015b828111156200022d57825182559160200191906001019062000210565b5b5090506200023d919062000241565b5090565b5b808211156200025c57600081600090555060010162000242565b5090565b600060028204905060018216806200027957607f821691505b6020821081141562000290576200028f62000296565b5b50919050565b7f4e487b7100000000000000000000000000000000000000000000000000000000600052602260045260246000fd5b613fa380620002d56000396000f3fe608060405234801561001057600080fd5b50600436106101cf5760003560e01c806370a0823111610104578063a40d1b10116100a2578063d6d4eb7f11610071578063d6d4eb7f14610533578063e985e9c51461054f578063f2fde38b1461057f578063f57ceb711461059b576101cf565b8063a40d1b10146104ad578063b88d4fde146104c9578063c2f23f42146104e5578063c87b56dd14610503576101cf565b806382b53355116100de57806382b53355146104375780638da5cb5b1461045557806395d89b4114610473578063a22cb46514610491576101cf565b806370a08231146103e1578063715018a6146104115780637b47ec1a1461041b576101cf565b80632a62c37d116101715780634c0c99021161014b5780634c0c9902146103305780634f64b2be1461034e5780634f6ccce7146103815780636352211e146103b1576101cf565b80632a62c37d146102c65780632f745c59146102e457806342842e0e14610314576101cf565b8063095ea7b3116101ad578063095ea7b31461025257806315d061a91461026e57806318160ddd1461028c57806323b872dd146102aa576101cf565b806301ffc9a7146101d457806306fdde0314610204578063081812fc14610222575b600080fd5b6101ee60048036038101906101e99190612bf8565b6105cb565b6040516101fb9190613278565b60405180910390f35b61020c6105dd565b6040516102199190613293565b60405180910390f35b61023c60048036038101906102379190612c52565b61066f565b6040516102499190613211565b60405180910390f35b61026c60048036038101906102679190612bb8565b6106b5565b005b6102766107cd565b60405161028391906134f6565b60405180910390f35b6102946107dd565b6040516102a191906134f6565b60405180910390f35b6102c460048036038101906102bf91906129b7565b6107ea565b005b6102ce61084a565b6040516102db91906134f6565b60405180910390f35b6102fe60048036038101906102f99190612bb8565b610854565b60405161030b91906134f6565b60405180910390f35b61032e600480360381019061032991906129b7565b6108f9565b005b610338610919565b6040516103459190613278565b60405180910390f35b61036860048036038101906103639190612c52565b6109cd565b60405161037894939291906132b5565b60405180910390f35b61039b60048036038101906103969190612c52565b610c1d565b6040516103a891906134f6565b60405180910390f35b6103cb60048036038101906103c69190612c52565b610c8e565b6040516103d89190613211565b60405180910390f35b6103fb60048036038101906103f6919061294a565b610d40565b60405161040891906134f6565b60405180910390f35b610419610df8565b005b61043560048036038101906104309190612c52565b610e0c565b005b61043f610e6d565b60405161044c91906134f6565b60405180910390f35b61045d610e77565b60405161046a9190613211565b60405180910390f35b61047b610ea1565b6040516104889190613293565b60405180910390f35b6104ab60048036038101906104a69190612a8d565b610f33565b005b6104c760048036038101906104c29190612acd565b610f49565b005b6104e360048036038101906104de9190612a0a565b611021565b005b6104ed611083565b6040516104fa9190613211565b60405180910390f35b61051d60048036038101906105189190612c52565b6110ad565b60405161052a9190613293565b60405180910390f35b61054d6004803603810190610548919061294a565b611150565b005b61056960048036038101906105649190612977565b61119c565b6040516105769190613278565b60405180910390f35b6105996004803603810190610594919061294a565b611230565b005b6105b560048036038101906105b09190612c52565b6112b4565b6040516105c29190613293565b60405180910390f35b60006105d68261131f565b9050919050565b6060600080546105ec906137bb565b80601f0160208091040260200160405190810160405280929190818152602001828054610618906137bb565b80156106655780601f1061063a57610100808354040283529160200191610665565b820191906000526020600020905b81548152906001019060200180831161064857829003601f168201915b5050505050905090565b600061067a82611399565b6004600083815260200190815260200160002060009054906101000a900473ffffffffffffffffffffffffffffffffffffffff169050919050565b60006106c082610c8e565b90508073ffffffffffffffffffffffffffffffffffffffff168373ffffffffffffffffffffffffffffffffffffffff161415610731576040517f08c379a000000000000000000000000000000000000000000000000000000000815260040161072890613496565b60405180910390fd5b8073ffffffffffffffffffffffffffffffffffffffff166107506113e4565b73ffffffffffffffffffffffffffffffffffffffff16148061077f575061077e816107796113e4565b61119c565b5b6107be576040517f08c379a00000000000000000000000000000000000000000000000000000000081526004016107b590613416565b60405180910390fd5b6107c883836113ec565b505050565b60006107d833610d40565b905090565b6000600880549050905090565b6107fb6107f56113e4565b826114a5565b61083a576040517f08c379a0000000000000000000000000000000000000000000000000000000008152600401610831906134d6565b60405180910390fd5b61084583838361153a565b505050565b6000600d54905090565b600061085f83610d40565b82106108a0576040517f08c379a000000000000000000000000000000000000000000000000000000000815260040161089790613316565b60405180910390fd5b600660008473ffffffffffffffffffffffffffffffffffffffff1673ffffffffffffffffffffffffffffffffffffffff168152602001908152602001600020600083815260200190815260200160002054905092915050565b61091483838360405180602001604052806000815250611021565b505050565b600080600c60009054906101000a900473ffffffffffffffffffffffffffffffffffffffff1673ffffffffffffffffffffffffffffffffffffffff166370a08231336040518263ffffffff1660e01b81526004016109779190613211565b60206040518083038186803b15801561098f57600080fd5b505afa1580156109a3573d6000803e3d6000fd5b505050506040513d601f19601f820116820180604052508101906109c79190612c7f565b11905090565b600b6020528060005260406000206000915090508060000180546109f0906137bb565b80601f0160208091040260200160405190810160405280929190818152602001828054610a1c906137bb565b8015610a695780601f10610a3e57610100808354040283529160200191610a69565b820191906000526020600020905b815481529060010190602001808311610a4c57829003601f168201915b505050505090806001018054610a7e906137bb565b80601f0160208091040260200160405190810160405280929190818152602001828054610aaa906137bb565b8015610af75780601f10610acc57610100808354040283529160200191610af7565b820191906000526020600020905b815481529060010190602001808311610ada57829003601f168201915b505050505090806002018054610b0c906137bb565b80601f0160208091040260200160405190810160405280929190818152602001828054610b38906137bb565b8015610b855780601f10610b5a57610100808354040283529160200191610b85565b820191906000526020600020905b815481529060010190602001808311610b6857829003601f168201915b505050505090806003018054610b9a906137bb565b80601f0160208091040260200160405190810160405280929190818152602001828054610bc6906137bb565b8015610c135780601f10610be857610100808354040283529160200191610c13565b820191906000526020600020905b815481529060010190602001808311610bf657829003601f168201915b5050505050905084565b6000610c276107dd565b8210610c68576040517f08c379a0000000000000000000000000000000000000000000000000000000008152600401610c5f906134b6565b60405180910390fd5b60088281548110610c7c57610c7b613923565b5b90600052602060002001549050919050565b6000806002600084815260200190815260200160002060009054906101000a900473ffffffffffffffffffffffffffffffffffffffff169050600073ffffffffffffffffffffffffffffffffffffffff168173ffffffffffffffffffffffffffffffffffffffff161415610d37576040517f08c379a0000000000000000000000000000000000000000000000000000000008152600401610d2e90613476565b60405180910390fd5b80915050919050565b60008073ffffffffffffffffffffffffffffffffffffffff168273ffffffffffffffffffffffffffffffffffffffff161415610db1576040517f08c379a0000000000000000000000000000000000000000000000000000000008152600401610da8906133f6565b60405180910390fd5b600360008373ffffffffffffffffffffffffffffffffffffffff1673ffffffffffffffffffffffffffffffffffffffff168152602001908152602001600020549050919050565b610e006117a1565b610e0a600061181f565b565b3373ffffffffffffffffffffffffffffffffffffffff16610e2c82610c8e565b73ffffffffffffffffffffffffffffffffffffffff161415610e6a57610e51816118e5565b600e6000815480929190610e649061381e565b91905055505b50565b6000600e54905090565b6000600a60009054906101000a900473ffffffffffffffffffffffffffffffffffffffff16905090565b606060018054610eb0906137bb565b80601f0160208091040260200160405190810160405280929190818152602001828054610edc906137bb565b8015610f295780601f10610efe57610100808354040283529160200191610f29565b820191906000526020600020905b815481529060010190602001808311610f0c57829003601f168201915b5050505050905090565b610f45610f3e6113e4565b83836118f1565b5050565b610f5585600d54611a5e565b604051806080016040528085815260200184815260200183815260200182815250600b6000600d5481526020019081526020016000206000820151816000019080519060200190610fa7929190612749565b506020820151816001019080519060200190610fc4929190612749565b506040820151816002019080519060200190610fe1929190612749565b506060820151816003019080519060200190610ffe929190612749565b50905050600d60008154809291906110159061381e565b91905055505050505050565b61103261102c6113e4565b836114a5565b611071576040517f08c379a0000000000000000000000000000000000000000000000000000000008152600401611068906134d6565b60405180910390fd5b61107d84848484611a7c565b50505050565b6000600c60009054906101000a900473ffffffffffffffffffffffffffffffffffffffff16905090565b60606000611126600b6000858152602001908152602001600020600001600b60008681526020019081526020016000206001016110e9866112b4565b600b60008881526020019081526020016000206003016040516020016111129493929190613137565b604051602081830303815290604052611ad8565b90508060405160200161113991906131cd565b604051602081830303815290604052915050919050565b6111586117a1565b80600c60006101000a81548173ffffffffffffffffffffffffffffffffffffffff021916908373ffffffffffffffffffffffffffffffffffffffff16021790555050565b6000600560008473ffffffffffffffffffffffffffffffffffffffff1673ffffffffffffffffffffffffffffffffffffffff16815260200190815260200160002060008373ffffffffffffffffffffffffffffffffffffffff1673ffffffffffffffffffffffffffffffffffffffff16815260200190815260200160002060009054906101000a900460ff16905092915050565b6112386117a1565b600073ffffffffffffffffffffffffffffffffffffffff168173ffffffffffffffffffffffffffffffffffffffff1614156112a8576040517f08c379a000000000000000000000000000000000000000000000000000000000815260040161129f90613356565b60405180910390fd5b6112b18161181f565b50565b60606000600b60008481526020019081526020016000206002016040516020016112de9190613120565b60405160208183030381529060405290506112f881611ad8565b60405160200161130891906131ef565b604051602081830303815290604052915050919050565b60007f780e9d63000000000000000000000000000000000000000000000000000000007bffffffffffffffffffffffffffffffffffffffffffffffffffffffff1916827bffffffffffffffffffffffffffffffffffffffffffffffffffffffff19161480611392575061139182611c51565b5b9050919050565b6113a281611d33565b6113e1576040517f08c379a00000000000000000000000000000000000000000000000000000000081526004016113d890613476565b60405180910390fd5b50565b600033905090565b816004600083815260200190815260200160002060006101000a81548173ffffffffffffffffffffffffffffffffffffffff021916908373ffffffffffffffffffffffffffffffffffffffff160217905550808273ffffffffffffffffffffffffffffffffffffffff1661145f83610c8e565b73ffffffffffffffffffffffffffffffffffffffff167f8c5be1e5ebec7d5bd14f71427d1e84f3dd0314c0f7b2291e5b200ac8c7c3b92560405160405180910390a45050565b6000806114b183610c8e565b90508073ffffffffffffffffffffffffffffffffffffffff168473ffffffffffffffffffffffffffffffffffffffff1614806114f357506114f2818561119c565b5b8061153157508373ffffffffffffffffffffffffffffffffffffffff166115198461066f565b73ffffffffffffffffffffffffffffffffffffffff16145b91505092915050565b8273ffffffffffffffffffffffffffffffffffffffff1661155a82610c8e565b73ffffffffffffffffffffffffffffffffffffffff16146115b0576040517f08c379a00000000000000000000000000000000000000000000000000000000081526004016115a790613376565b60405180910390fd5b600073ffffffffffffffffffffffffffffffffffffffff168273ffffffffffffffffffffffffffffffffffffffff161415611620576040517f08c379a0000000000000000000000000000000000000000000000000000000008152600401611617906133b6565b60405180910390fd5b61162b838383611d9f565b6116366000826113ec565b6001600360008573ffffffffffffffffffffffffffffffffffffffff1673ffffffffffffffffffffffffffffffffffffffff168152602001908152602001600020600082825461168691906136d1565b925050819055506001600360008473ffffffffffffffffffffffffffffffffffffffff1673ffffffffffffffffffffffffffffffffffffffff16815260200190815260200160002060008282546116dd91906135f0565b92505081905550816002600083815260200190815260200160002060006101000a81548173ffffffffffffffffffffffffffffffffffffffff021916908373ffffffffffffffffffffffffffffffffffffffff160217905550808273ffffffffffffffffffffffffffffffffffffffff168473ffffffffffffffffffffffffffffffffffffffff167fddf252ad1be2c89b69c2b068fc378daa952ba7f163c4a11628f55a4df523b3ef60405160405180910390a461179c838383611daf565b505050565b6117a96113e4565b73ffffffffffffffffffffffffffffffffffffffff166117c7610e77565b73ffffffffffffffffffffffffffffffffffffffff161461181d576040517f08c379a000000000000000000000000000000000000000000000000000000000815260040161181490613456565b60405180910390fd5b565b6000600a60009054906101000a900473ffffffffffffffffffffffffffffffffffffffff16905081600a60006101000a81548173ffffffffffffffffffffffffffffffffffffffff021916908373ffffffffffffffffffffffffffffffffffffffff1602179055508173ffffffffffffffffffffffffffffffffffffffff168173ffffffffffffffffffffffffffffffffffffffff167f8be0079c531659141344cd1fd0a4f28419497f9722a3daafe3b4186f6b6457e060405160405180910390a35050565b6118ee81611db4565b50565b8173ffffffffffffffffffffffffffffffffffffffff168373ffffffffffffffffffffffffffffffffffffffff161415611960576040517f08c379a0000000000000000000000000000000000000000000000000000000008152600401611957906133d6565b60405180910390fd5b80600560008573ffffffffffffffffffffffffffffffffffffffff1673ffffffffffffffffffffffffffffffffffffffff16815260200190815260200160002060008473ffffffffffffffffffffffffffffffffffffffff1673ffffffffffffffffffffffffffffffffffffffff16815260200190815260200160002060006101000a81548160ff0219169083151502179055508173ffffffffffffffffffffffffffffffffffffffff168373ffffffffffffffffffffffffffffffffffffffff167f17307eab39ab6107e8899845ad3d59bd9653f200f220920489ca2b5937696c3183604051611a519190613278565b60405180910390a3505050565b611a78828260405180602001604052806000815250611ed1565b5050565b611a8784848461153a565b611a9384848484611f2c565b611ad2576040517f08c379a0000000000000000000000000000000000000000000000000000000008152600401611ac990613336565b60405180910390fd5b50505050565b6060600082511415611afb57604051806020016040528060008152509050611c4c565b6000604051806060016040528060408152602001613f2e6040913990506000600360028551611b2a91906135f0565b611b349190613646565b6004611b409190613677565b90506000602082611b5191906135f0565b67ffffffffffffffff811115611b6a57611b69613952565b5b6040519080825280601f01601f191660200182016040528015611b9c5781602001600182028036833780820191505090505b509050818152600183018586518101602084015b81831015611c0b576003830192508251603f8160121c168501518253600182019150603f81600c1c168501518253600182019150603f8160061c168501518253600182019150603f8116850151825360018201915050611bb0565b600389510660018114611c255760028114611c3557611c40565b613d3d60f01b6002830352611c40565b603d60f81b60018303525b50505050508093505050505b919050565b60007f80ac58cd000000000000000000000000000000000000000000000000000000007bffffffffffffffffffffffffffffffffffffffffffffffffffffffff1916827bffffffffffffffffffffffffffffffffffffffffffffffffffffffff19161480611d1c57507f5b5e139f000000000000000000000000000000000000000000000000000000007bffffffffffffffffffffffffffffffffffffffffffffffffffffffff1916827bffffffffffffffffffffffffffffffffffffffffffffffffffffffff1916145b80611d2c5750611d2b826120c3565b5b9050919050565b60008073ffffffffffffffffffffffffffffffffffffffff166002600084815260200190815260200160002060009054906101000a900473ffffffffffffffffffffffffffffffffffffffff1673ffffffffffffffffffffffffffffffffffffffff1614159050919050565b611daa83838361212d565b505050565b505050565b6000611dbf82610c8e565b9050611dcd81600084611d9f565b611dd86000836113ec565b6001600360008373ffffffffffffffffffffffffffffffffffffffff1673ffffffffffffffffffffffffffffffffffffffff1681526020019081526020016000206000828254611e2891906136d1565b925050819055506002600083815260200190815260200160002060006101000a81549073ffffffffffffffffffffffffffffffffffffffff021916905581600073ffffffffffffffffffffffffffffffffffffffff168273ffffffffffffffffffffffffffffffffffffffff167fddf252ad1be2c89b69c2b068fc378daa952ba7f163c4a11628f55a4df523b3ef60405160405180910390a4611ecd81600084611daf565b5050565b611edb8383612241565b611ee86000848484611f2c565b611f27576040517f08c379a0000000000000000000000000000000000000000000000000000000008152600401611f1e90613336565b60405180910390fd5b505050565b6000611f4d8473ffffffffffffffffffffffffffffffffffffffff1661241b565b156120b6578373ffffffffffffffffffffffffffffffffffffffff1663150b7a02611f766113e4565b8786866040518563ffffffff1660e01b8152600401611f98949392919061322c565b602060405180830381600087803b158015611fb257600080fd5b505af1925050508015611fe357506040513d601f19601f82011682018060405250810190611fe09190612c25565b60015b612066573d8060008114612013576040519150601f19603f3d011682016040523d82523d6000602084013e612018565b606091505b5060008151141561205e576040517f08c379a000000000000000000000000000000000000000000000000000000000815260040161205590613336565b60405180910390fd5b805181602001fd5b63150b7a0260e01b7bffffffffffffffffffffffffffffffffffffffffffffffffffffffff1916817bffffffffffffffffffffffffffffffffffffffffffffffffffffffff1916149150506120bb565b600190505b949350505050565b60007f01ffc9a7000000000000000000000000000000000000000000000000000000007bffffffffffffffffffffffffffffffffffffffffffffffffffffffff1916827bffffffffffffffffffffffffffffffffffffffffffffffffffffffff1916149050919050565b61213883838361243e565b600073ffffffffffffffffffffffffffffffffffffffff168373ffffffffffffffffffffffffffffffffffffffff16141561217b5761217681612443565b6121ba565b8173ffffffffffffffffffffffffffffffffffffffff168373ffffffffffffffffffffffffffffffffffffffff16146121b9576121b8838261248c565b5b5b600073ffffffffffffffffffffffffffffffffffffffff168273ffffffffffffffffffffffffffffffffffffffff1614156121fd576121f8816125f9565b61223c565b8273ffffffffffffffffffffffffffffffffffffffff168273ffffffffffffffffffffffffffffffffffffffff161461223b5761223a82826126ca565b5b5b505050565b600073ffffffffffffffffffffffffffffffffffffffff168273ffffffffffffffffffffffffffffffffffffffff1614156122b1576040517f08c379a00000000000000000000000000000000000000000000000000000000081526004016122a890613436565b60405180910390fd5b6122ba81611d33565b156122fa576040517f08c379a00000000000000000000000000000000000000000000000000000000081526004016122f190613396565b60405180910390fd5b61230660008383611d9f565b6001600360008473ffffffffffffffffffffffffffffffffffffffff1673ffffffffffffffffffffffffffffffffffffffff168152602001908152602001600020600082825461235691906135f0565b92505081905550816002600083815260200190815260200160002060006101000a81548173ffffffffffffffffffffffffffffffffffffffff021916908373ffffffffffffffffffffffffffffffffffffffff160217905550808273ffffffffffffffffffffffffffffffffffffffff16600073ffffffffffffffffffffffffffffffffffffffff167fddf252ad1be2c89b69c2b068fc378daa952ba7f163c4a11628f55a4df523b3ef60405160405180910390a461241760008383611daf565b5050565b6000808273ffffffffffffffffffffffffffffffffffffffff163b119050919050565b505050565b6008805490506009600083815260200190815260200160002081905550600881908060018154018082558091505060019003906000526020600020016000909190919091505550565b6000600161249984610d40565b6124a391906136d1565b9050600060076000848152602001908152602001600020549050818114612588576000600660008673ffffffffffffffffffffffffffffffffffffffff1673ffffffffffffffffffffffffffffffffffffffff168152602001908152602001600020600084815260200190815260200160002054905080600660008773ffffffffffffffffffffffffffffffffffffffff1673ffffffffffffffffffffffffffffffffffffffff168152602001908152602001600020600084815260200190815260200160002081905550816007600083815260200190815260200160002081905550505b6007600084815260200190815260200160002060009055600660008573ffffffffffffffffffffffffffffffffffffffff1673ffffffffffffffffffffffffffffffffffffffff16815260200190815260200160002060008381526020019081526020016000206000905550505050565b6000600160088054905061260d91906136d1565b905060006009600084815260200190815260200160002054905060006008838154811061263d5761263c613923565b5b90600052602060002001549050806008838154811061265f5761265e613923565b5b9060005260206000200181905550816009600083815260200190815260200160002081905550600960008581526020019081526020016000206000905560088054806126ae576126ad6138f4565b5b6001900381819060005260206000200160009055905550505050565b60006126d583610d40565b905081600660008573ffffffffffffffffffffffffffffffffffffffff1673ffffffffffffffffffffffffffffffffffffffff168152602001908152602001600020600083815260200190815260200160002081905550806007600084815260200190815260200160002081905550505050565b828054612755906137bb565b90600052602060002090601f01602090048101928261277757600085556127be565b82601f1061279057805160ff19168380011785556127be565b828001600101855582156127be579182015b828111156127bd5782518255916020019190600101906127a2565b5b5090506127cb91906127cf565b5090565b5b808211156127e85760008160009055506001016127d0565b5090565b60006127ff6127fa84613536565b613511565b90508281526020810184848401111561281b5761281a613986565b5b612826848285613779565b509392505050565b600061284161283c84613567565b613511565b90508281526020810184848401111561285d5761285c613986565b5b612868848285613779565b509392505050565b60008135905061287f81613ed1565b92915050565b60008135905061289481613ee8565b92915050565b6000813590506128a981613eff565b92915050565b6000815190506128be81613eff565b92915050565b600082601f8301126128d9576128d8613981565b5b81356128e98482602086016127ec565b91505092915050565b600082601f83011261290757612906613981565b5b813561291784826020860161282e565b91505092915050565b60008135905061292f81613f16565b92915050565b60008151905061294481613f16565b92915050565b6000602082840312156129605761295f613990565b5b600061296e84828501612870565b91505092915050565b6000806040838503121561298e5761298d613990565b5b600061299c85828601612870565b92505060206129ad85828601612870565b9150509250929050565b6000806000606084860312156129d0576129cf613990565b5b60006129de86828701612870565b93505060206129ef86828701612870565b9250506040612a0086828701612920565b9150509250925092565b60008060008060808587031215612a2457612a23613990565b5b6000612a3287828801612870565b9450506020612a4387828801612870565b9350506040612a5487828801612920565b925050606085013567ffffffffffffffff811115612a7557612a7461398b565b5b612a81878288016128c4565b91505092959194509250565b60008060408385031215612aa457612aa3613990565b5b6000612ab285828601612870565b9250506020612ac385828601612885565b9150509250929050565b600080600080600060a08688031215612ae957612ae8613990565b5b6000612af788828901612870565b955050602086013567ffffffffffffffff811115612b1857612b1761398b565b5b612b24888289016128f2565b945050604086013567ffffffffffffffff811115612b4557612b4461398b565b5b612b51888289016128f2565b935050606086013567ffffffffffffffff811115612b7257612b7161398b565b5b612b7e888289016128f2565b925050608086013567ffffffffffffffff811115612b9f57612b9e61398b565b5b612bab888289016128f2565b9150509295509295909350565b60008060408385031215612bcf57612bce613990565b5b6000612bdd85828601612870565b9250506020612bee85828601612920565b9150509250929050565b600060208284031215612c0e57612c0d613990565b5b6000612c1c8482850161289a565b91505092915050565b600060208284031215612c3b57612c3a613990565b5b6000612c49848285016128af565b91505092915050565b600060208284031215612c6857612c67613990565b5b6000612c7684828501612920565b91505092915050565b600060208284031215612c9557612c94613990565b5b6000612ca384828501612935565b91505092915050565b612cb581613705565b82525050565b612cc481613717565b82525050565b6000612cd5826135ad565b612cdf81856135c3565b9350612cef818560208601613788565b612cf881613995565b840191505092915050565b6000612d0e826135b8565b612d1881856135d4565b9350612d28818560208601613788565b612d3181613995565b840191505092915050565b6000612d47826135b8565b612d5181856135e5565b9350612d61818560208601613788565b80840191505092915050565b60008154612d7a816137bb565b612d8481866135e5565b94506001821660008114612d9f5760018114612db057612de3565b60ff19831686528186019350612de3565b612db985613598565b60005b83811015612ddb57815481890152600182019150602081019050612dbc565b838801955050505b50505092915050565b6000612df9602b836135d4565b9150612e04826139a6565b604082019050919050565b6000612e1c6032836135d4565b9150612e27826139f5565b604082019050919050565b6000612e3f6026836135d4565b9150612e4a82613a44565b604082019050919050565b6000612e626002836135e5565b9150612e6d82613a93565b600282019050919050565b6000612e856025836135d4565b9150612e9082613abc565b604082019050919050565b6000612ea8601c836135d4565b9150612eb382613b0b565b602082019050919050565b6000612ecb600f836135e5565b9150612ed682613b34565b600f82019050919050565b6000612eee6024836135d4565b9150612ef982613b5d565b604082019050919050565b6000612f116019836135d4565b9150612f1c82613bac565b602082019050919050565b6000612f346010836135e5565b9150612f3f82613bd5565b601082019050919050565b6000612f576029836135d4565b9150612f6282613bfe565b604082019050919050565b6000612f7a6002836135e5565b9150612f8582613c4d565b600282019050919050565b6000612f9d603e836135d4565b9150612fa882613c76565b604082019050919050565b6000612fc06020836135d4565b9150612fcb82613cc5565b602082019050919050565b6000612fe36020836135d4565b9150612fee82613cee565b602082019050919050565b6000613006600a836135e5565b915061301182613d17565b600a82019050919050565b60006130296018836135d4565b915061303482613d40565b602082019050919050565b600061304c6021836135d4565b915061305782613d69565b604082019050919050565b600061306f601d836135e5565b915061307a82613db8565b601d82019050919050565b6000613092602c836135d4565b915061309d82613de1565b604082019050919050565b60006130b5602e836135d4565b91506130c082613e30565b604082019050919050565b60006130d8600f836135e5565b91506130e382613e7f565b600f82019050919050565b60006130fb601a836135e5565b915061310682613ea8565b601a82019050919050565b61311a8161376f565b82525050565b600061312c8284612d6d565b915081905092915050565b600061314282612ff9565b915061314e8287612d6d565b915061315982612e55565b915061316482612f27565b91506131708286612d6d565b915061317b82612e55565b915061318682612ebe565b91506131928285612d3c565b915061319d82612e55565b91506131a8826130cb565b91506131b48284612d6d565b91506131bf82612f6d565b915081905095945050505050565b60006131d882613062565b91506131e48284612d3c565b915081905092915050565b60006131fa826130ee565b91506132068284612d3c565b915081905092915050565b60006020820190506132266000830184612cac565b92915050565b60006080820190506132416000830187612cac565b61324e6020830186612cac565b61325b6040830185613111565b818103606083015261326d8184612cca565b905095945050505050565b600060208201905061328d6000830184612cbb565b92915050565b600060208201905081810360008301526132ad8184612d03565b905092915050565b600060808201905081810360008301526132cf8187612d03565b905081810360208301526132e38186612d03565b905081810360408301526132f78185612d03565b9050818103606083015261330b8184612d03565b905095945050505050565b6000602082019050818103600083015261332f81612dec565b9050919050565b6000602082019050818103600083015261334f81612e0f565b9050919050565b6000602082019050818103600083015261336f81612e32565b9050919050565b6000602082019050818103600083015261338f81612e78565b9050919050565b600060208201905081810360008301526133af81612e9b565b9050919050565b600060208201905081810360008301526133cf81612ee1565b9050919050565b600060208201905081810360008301526133ef81612f04565b9050919050565b6000602082019050818103600083015261340f81612f4a565b9050919050565b6000602082019050818103600083015261342f81612f90565b9050919050565b6000602082019050818103600083015261344f81612fb3565b9050919050565b6000602082019050818103600083015261346f81612fd6565b9050919050565b6000602082019050818103600083015261348f8161301c565b9050919050565b600060208201905081810360008301526134af8161303f565b9050919050565b600060208201905081810360008301526134cf81613085565b9050919050565b600060208201905081810360008301526134ef816130a8565b9050919050565b600060208201905061350b6000830184613111565b92915050565b600061351b61352c565b905061352782826137ed565b919050565b6000604051905090565b600067ffffffffffffffff82111561355157613550613952565b5b61355a82613995565b9050602081019050919050565b600067ffffffffffffffff82111561358257613581613952565b5b61358b82613995565b9050602081019050919050565b60008190508160005260206000209050919050565b600081519050919050565b600081519050919050565b600082825260208201905092915050565b600082825260208201905092915050565b600081905092915050565b60006135fb8261376f565b91506136068361376f565b9250827fffffffffffffffffffffffffffffffffffffffffffffffffffffffffffffffff0382111561363b5761363a613867565b5b828201905092915050565b60006136518261376f565b915061365c8361376f565b92508261366c5761366b613896565b5b828204905092915050565b60006136828261376f565b915061368d8361376f565b9250817fffffffffffffffffffffffffffffffffffffffffffffffffffffffffffffffff04831182151516156136c6576136c5613867565b5b828202905092915050565b60006136dc8261376f565b91506136e78361376f565b9250828210156136fa576136f9613867565b5b828203905092915050565b60006137108261374f565b9050919050565b60008115159050919050565b60007fffffffff0000000000000000000000000000000000000000000000000000000082169050919050565b600073ffffffffffffffffffffffffffffffffffffffff82169050919050565b6000819050919050565b82818337600083830152505050565b60005b838110156137a657808201518184015260208101905061378b565b838111156137b5576000848401525b50505050565b600060028204905060018216806137d357607f821691505b602082108114156137e7576137e66138c5565b5b50919050565b6137f682613995565b810181811067ffffffffffffffff8211171561381557613814613952565b5b80604052505050565b60006138298261376f565b91507fffffffffffffffffffffffffffffffffffffffffffffffffffffffffffffffff82141561385c5761385b613867565b5b600182019050919050565b7f4e487b7100000000000000000000000000000000000000000000000000000000600052601160045260246000fd5b7f4e487b7100000000000000000000000000000000000000000000000000000000600052601260045260246000fd5b7f4e487b7100000000000000000000000000000000000000000000000000000000600052602260045260246000fd5b7f4e487b7100000000000000000000000000000000000000000000000000000000600052603160045260246000fd5b7f4e487b7100000000000000000000000000000000000000000000000000000000600052603260045260246000fd5b7f4e487b7100000000000000000000000000000000000000000000000000000000600052604160045260246000fd5b600080fd5b600080fd5b600080fd5b600080fd5b6000601f19601f8301169050919050565b7f455243373231456e756d657261626c653a206f776e657220696e646578206f7560008201527f74206f6620626f756e6473000000000000000000000000000000000000000000602082015250565b7f4552433732313a207472616e7366657220746f206e6f6e20455243373231526560008201527f63656976657220696d706c656d656e7465720000000000000000000000000000602082015250565b7f4f776e61626c653a206e6577206f776e657220697320746865207a65726f206160008201527f6464726573730000000000000000000000000000000000000000000000000000602082015250565b7f222c000000000000000000000000000000000000000000000000000000000000600082015250565b7f4552433732313a207472616e736665722066726f6d20696e636f72726563742060008201527f6f776e6572000000000000000000000000000000000000000000000000000000602082015250565b7f4552433732313a20746f6b656e20616c7265616479206d696e74656400000000600082015250565b7f22696d6167655f64617461223a20220000000000000000000000000000000000600082015250565b7f4552433732313a207472616e7366657220746f20746865207a65726f2061646460008201527f7265737300000000000000000000000000000000000000000000000000000000602082015250565b7f4552433732313a20617070726f766520746f2063616c6c657200000000000000600082015250565b7f226465736372697074696f6e223a202200000000000000000000000000000000600082015250565b7f4552433732313a2061646472657373207a65726f206973206e6f74206120766160008201527f6c6964206f776e65720000000000000000000000000000000000000000000000602082015250565b7f227d000000000000000000000000000000000000000000000000000000000000600082015250565b7f4552433732313a20617070726f76652063616c6c6572206973206e6f7420746f60008201527f6b656e206f776e6572206e6f7220617070726f76656420666f7220616c6c0000602082015250565b7f4552433732313a206d696e7420746f20746865207a65726f2061646472657373600082015250565b7f4f776e61626c653a2063616c6c6572206973206e6f7420746865206f776e6572600082015250565b7f7b226e616d65223a202200000000000000000000000000000000000000000000600082015250565b7f4552433732313a20696e76616c696420746f6b656e2049440000000000000000600082015250565b7f4552433732313a20617070726f76616c20746f2063757272656e74206f776e6560008201527f7200000000000000000000000000000000000000000000000000000000000000602082015250565b7f646174613a6170706c69636174696f6e2f6a736f6e3b6261736536342c000000600082015250565b7f455243373231456e756d657261626c653a20676c6f62616c20696e646578206f60008201527f7574206f6620626f756e64730000000000000000000000000000000000000000602082015250565b7f4552433732313a2063616c6c6572206973206e6f7420746f6b656e206f776e6560008201527f72206e6f7220617070726f766564000000000000000000000000000000000000602082015250565b7f2261747472696275746573223a20220000000000000000000000000000000000600082015250565b7f646174613a696d6167652f7376672b786d6c3b6261736536342c000000000000600082015250565b613eda81613705565b8114613ee557600080fd5b50565b613ef181613717565b8114613efc57600080fd5b50565b613f0881613723565b8114613f1357600080fd5b50565b613f1f8161376f565b8114613f2a57600080fd5b5056fe4142434445464748494a4b4c4d4e4f505152535455565758595a6162636465666768696a6b6c6d6e6f707172737475767778797a303132333435363738392b2fa26469706673582212205d3a1dca64a2d78b9817867f9c704bbcc5ee530166782ab9ac3d0dc17d6cff3164736f6c63430008070033",
  "linkReferences": {},
  "deployedLinkReferences": {}
}