{
  "_format": "hh-sol-artifact-1",
  "contractName": "PAINT_ON_CHAIN",
  "sourceName": "contracts/PaintOnChain.sol",
  "abi": [
    {
      "inputs": [],
      "stateMutability": "nonpayable",
      "type": "constructor"
    },
    {
      "anonymous": false,
      "inputs": [
        {
          "indexed": true,
          "internalType": "address",
          "name": "owner",
          "type": "address"
        },
        {
          "indexed": true,
          "internalType": "address",
          "name": "approved",
          "type": "address"
        },
        {
          "indexed": true,
          "internalType": "uint256",
          "name": "tokenId",
          "type": "uint256"
        }
      ],
      "name": "Approval",
      "type": "event"
    },
    {
      "anonymous": false,
      "inputs": [
        {
          "indexed": true,
          "internalType": "address",
          "name": "owner",
          "type": "address"
        },
        {
          "indexed": true,
          "internalType": "address",
          "name": "operator",
          "type": "address"
        },
        {
          "indexed": false,
          "internalType": "bool",
          "name": "approved",
          "type": "bool"
        }
      ],
      "name": "ApprovalForAll",
      "type": "event"
    },
    {
      "anonymous": false,
      "inputs": [
        {
          "indexed": true,
          "internalType": "address",
          "name": "previousOwner",
          "type": "address"
        },
        {
          "indexed": true,
          "internalType": "address",
          "name": "newOwner",
          "type": "address"
        }
      ],
      "name": "OwnershipTransferred",
      "type": "event"
    },
    {
      "anonymous": false,
      "inputs": [
        {
          "indexed": true,
          "internalType": "address",
          "name": "from",
          "type": "address"
        },
        {
          "indexed": true,
          "internalType": "address",
          "name": "to",
          "type": "address"
        },
        {
          "indexed": true,
          "internalType": "uint256",
          "name": "tokenId",
          "type": "uint256"
        }
      ],
      "name": "Transfer",
      "type": "event"
    },
    {
      "inputs": [
        {
          "internalType": "address",
          "name": "to",
          "type": "address"
        },
        {
          "internalType": "uint256",
          "name": "tokenId",
          "type": "uint256"
        }
      ],
      "name": "approve",
      "outputs": [],
      "stateMutability": "nonpayable",
      "type": "function"
    },
    {
      "inputs": [
        {
          "internalType": "address",
          "name": "owner",
          "type": "address"
        }
      ],
      "name": "balanceOf",
      "outputs": [
        {
          "internalType": "uint256",
          "name": "",
          "type": "uint256"
        }
      ],
      "stateMutability": "view",
      "type": "function"
    },
    {
      "inputs": [
        {
          "internalType": "uint256",
          "name": "tokenId",
          "type": "uint256"
        }
      ],
      "name": "burnToken",
      "outputs": [],
      "stateMutability": "nonpayable",
      "type": "function"
    },
    {
      "inputs": [
        {
          "internalType": "uint256",
          "name": "tokenId",
          "type": "uint256"
        }
      ],
      "name": "getApproved",
      "outputs": [
        {
          "internalType": "address",
          "name": "",
          "type": "address"
        }
      ],
      "stateMutability": "view",
      "type": "function"
    },
    {
      "inputs": [],
      "name": "getAuthContractAddress",
      "outputs": [
        {
          "internalType": "address",
          "name": "",
          "type": "address"
        }
      ],
      "stateMutability": "view",
      "type": "function"
    },
    {
      "inputs": [],
      "name": "getNumberOfTokensBurned",
      "outputs": [
        {
          "internalType": "uint256",
          "name": "",
          "type": "uint256"
        }
      ],
      "stateMutability": "view",
      "type": "function"
    },
    {
      "inputs": [],
      "name": "getNumberOfTokensCreated",
      "outputs": [
        {
          "internalType": "uint256",
          "name": "",
          "type": "uint256"
        }
      ],
      "stateMutability": "view",
      "type": "function"
    },
    {
      "inputs": [
        {
          "internalType": "uint256",
          "name": "tokenId",
          "type": "uint256"
        }
      ],
      "name": "getTokenMetaData",
      "outputs": [
        {
          "internalType": "string",
          "name": "",
          "type": "string"
        }
      ],
      "stateMutability": "view",
      "type": "function"
    },
    {
      "inputs": [],
      "name": "getWalletTokenBalance",
      "outputs": [
        {
          "internalType": "uint256",
          "name": "",
          "type": "uint256"
        }
      ],
      "stateMutability": "view",
      "type": "function"
    },
    {
      "inputs": [
        {
          "internalType": "address",
          "name": "owner",
          "type": "address"
        },
        {
          "internalType": "address",
          "name": "operator",
          "type": "address"
        }
      ],
      "name": "isApprovedForAll",
      "outputs": [
        {
          "internalType": "bool",
          "name": "",
          "type": "bool"
        }
      ],
      "stateMutability": "view",
      "type": "function"
    },
    {
      "inputs": [
        {
          "internalType": "address",
          "name": "to",
          "type": "address"
        },
        {
          "internalType": "string",
          "name": "metadata",
          "type": "string"
        }
      ],
      "name": "mint",
      "outputs": [],
      "stateMutability": "nonpayable",
      "type": "function"
    },
    {
      "inputs": [],
      "name": "name",
      "outputs": [
        {
          "internalType": "string",
          "name": "",
          "type": "string"
        }
      ],
      "stateMutability": "view",
      "type": "function"
    },
    {
      "inputs": [],
      "name": "owner",
      "outputs": [
        {
          "internalType": "address",
          "name": "",
          "type": "address"
        }
      ],
      "stateMutability": "view",
      "type": "function"
    },
    {
      "inputs": [
        {
          "internalType": "uint256",
          "name": "tokenId",
          "type": "uint256"
        }
      ],
      "name": "ownerOf",
      "outputs": [
        {
          "internalType": "address",
          "name": "",
          "type": "address"
        }
      ],
      "stateMutability": "view",
      "type": "function"
    },
    {
      "inputs": [],
      "name": "renounceOwnership",
      "outputs": [],
      "stateMutability": "nonpayable",
      "type": "function"
    },
    {
      "inputs": [
        {
          "internalType": "address",
          "name": "from",
          "type": "address"
        },
        {
          "internalType": "address",
          "name": "to",
          "type": "address"
        },
        {
          "internalType": "uint256",
          "name": "tokenId",
          "type": "uint256"
        }
      ],
      "name": "safeTransferFrom",
      "outputs": [],
      "stateMutability": "nonpayable",
      "type": "function"
    },
    {
      "inputs": [
        {
          "internalType": "address",
          "name": "from",
          "type": "address"
        },
        {
          "internalType": "address",
          "name": "to",
          "type": "address"
        },
        {
          "internalType": "uint256",
          "name": "tokenId",
          "type": "uint256"
        },
        {
          "internalType": "bytes",
          "name": "data",
          "type": "bytes"
        }
      ],
      "name": "safeTransferFrom",
      "outputs": [],
      "stateMutability": "nonpayable",
      "type": "function"
    },
    {
      "inputs": [
        {
          "internalType": "address",
          "name": "operator",
          "type": "address"
        },
        {
          "internalType": "bool",
          "name": "approved",
          "type": "bool"
        }
      ],
      "name": "setApprovalForAll",
      "outputs": [],
      "stateMutability": "nonpayable",
      "type": "function"
    },
    {
      "inputs": [
        {
          "internalType": "address",
          "name": "_contractAddress",
          "type": "address"
        }
      ],
      "name": "setAuthContractAddress",
      "outputs": [],
      "stateMutability": "nonpayable",
      "type": "function"
    },
    {
      "inputs": [
        {
          "internalType": "bytes4",
          "name": "interfaceId",
          "type": "bytes4"
        }
      ],
      "name": "supportsInterface",
      "outputs": [
        {
          "internalType": "bool",
          "name": "",
          "type": "bool"
        }
      ],
      "stateMutability": "view",
      "type": "function"
    },
    {
      "inputs": [],
      "name": "symbol",
      "outputs": [
        {
          "internalType": "string",
          "name": "",
          "type": "string"
        }
      ],
      "stateMutability": "view",
      "type": "function"
    },
    {
      "inputs": [
        {
          "internalType": "uint256",
          "name": "index",
          "type": "uint256"
        }
      ],
      "name": "tokenByIndex",
      "outputs": [
        {
          "internalType": "uint256",
          "name": "",
          "type": "uint256"
        }
      ],
      "stateMutability": "view",
      "type": "function"
    },
    {
      "inputs": [
        {
          "internalType": "address",
          "name": "owner",
          "type": "address"
        },
        {
          "internalType": "uint256",
          "name": "index",
          "type": "uint256"
        }
      ],
      "name": "tokenOfOwnerByIndex",
      "outputs": [
        {
          "internalType": "uint256",
          "name": "",
          "type": "uint256"
        }
      ],
      "stateMutability": "view",
      "type": "function"
    },
    {
      "inputs": [
        {
          "internalType": "uint256",
          "name": "tokenId",
          "type": "uint256"
        }
      ],
      "name": "tokenURI",
      "outputs": [
        {
          "internalType": "string",
          "name": "",
          "type": "string"
        }
      ],
      "stateMutability": "view",
      "type": "function"
    },
    {
      "inputs": [
        {
          "internalType": "uint256",
          "name": "",
          "type": "uint256"
        }
      ],
      "name": "tokens",
      "outputs": [
        {
          "internalType": "string",
          "name": "metadata",
          "type": "string"
        }
      ],
      "stateMutability": "view",
      "type": "function"
    },
    {
      "inputs": [],
      "name": "totalSupply",
      "outputs": [
        {
          "internalType": "uint256",
          "name": "",
          "type": "uint256"
        }
      ],
      "stateMutability": "view",
      "type": "function"
    },
    {
      "inputs": [
        {
          "internalType": "address",
          "name": "from",
          "type": "address"
        },
        {
          "internalType": "address",
          "name": "to",
          "type": "address"
        },
        {
          "internalType": "uint256",
          "name": "tokenId",
          "type": "uint256"
        }
      ],
      "name": "transferFrom",
      "outputs": [],
      "stateMutability": "nonpayable",
      "type": "function"
    },
    {
      "inputs": [
        {
          "internalType": "address",
          "name": "newOwner",
          "type": "address"
        }
      ],
      "name": "transferOwnership",
      "outputs": [],
      "stateMutability": "nonpayable",
      "type": "function"
    },
    {
      "inputs": [],
      "name": "walletHoldsAuthToken",
      "outputs": [
        {
          "internalType": "bool",
          "name": "",
          "type": "bool"
        }
      ],
      "stateMutability": "view",
      "type": "function"
    }
  ],
  "bytecode": "0x60806040526000600d556000600e553480156200001b57600080fd5b506040518060400160405280600e81526020017f5041494e54204f4e20434841494e0000000000000000000000000000000000008152506040518060400160405280600c81526020017f5041494e544f4e434841494e00000000000000000000000000000000000000008152508160009080519060200190620000a0929190620001b0565b508060019080519060200190620000b9929190620001b0565b505050620000dc620000d0620000e260201b60201c565b620000ea60201b60201c565b620002c5565b600033905090565b6000600a60009054906101000a900473ffffffffffffffffffffffffffffffffffffffff16905081600a60006101000a81548173ffffffffffffffffffffffffffffffffffffffff021916908373ffffffffffffffffffffffffffffffffffffffff1602179055508173ffffffffffffffffffffffffffffffffffffffff168173ffffffffffffffffffffffffffffffffffffffff167f8be0079c531659141344cd1fd0a4f28419497f9722a3daafe3b4186f6b6457e060405160405180910390a35050565b828054620001be9062000260565b90600052602060002090601f016020900481019282620001e257600085556200022e565b82601f10620001fd57805160ff19168380011785556200022e565b828001600101855582156200022e579182015b828111156200022d57825182559160200191906001019062000210565b5b5090506200023d919062000241565b5090565b5b808211156200025c57600081600090555060010162000242565b5090565b600060028204905060018216806200027957607f821691505b6020821081141562000290576200028f62000296565b5b50919050565b7f4e487b7100000000000000000000000000000000000000000000000000000000600052602260045260246000fd5b61393280620002d56000396000f3fe608060405234801561001057600080fd5b50600436106101cf5760003560e01c806367c623cf11610104578063a22cb465116100a2578063d0def52111610071578063d0def52114610544578063d6d4eb7f14610560578063e985e9c51461057c578063f2fde38b146105ac576101cf565b8063a22cb465146104be578063b88d4fde146104da578063c2f23f42146104f6578063c87b56dd14610514576101cf565b80637b47ec1a116100de5780637b47ec1a1461044857806382b53355146104645780638da5cb5b1461048257806395d89b41146104a0576101cf565b806367c623cf146103de57806370a082311461040e578063715018a61461043e576101cf565b80632a62c37d116101715780634c0c99021161014b5780634c0c9902146103305780634f64b2be1461034e5780634f6ccce71461037e5780636352211e146103ae576101cf565b80632a62c37d146102c65780632f745c59146102e457806342842e0e14610314576101cf565b8063095ea7b3116101ad578063095ea7b31461025257806315d061a91461026e57806318160ddd1461028c57806323b872dd146102aa576101cf565b806301ffc9a7146101d457806306fdde0314610204578063081812fc14610222575b600080fd5b6101ee60048036038101906101e99190612948565b6105c8565b6040516101fb9190612d9c565b60405180910390f35b61020c6105da565b6040516102199190612db7565b60405180910390f35b61023c600480360381019061023791906129a2565b61066c565b6040516102499190612d35565b60405180910390f35b61026c60048036038101906102679190612908565b6106b2565b005b6102766107ca565b6040516102839190612fb9565b60405180910390f35b6102946107da565b6040516102a19190612fb9565b60405180910390f35b6102c460048036038101906102bf9190612796565b6107e7565b005b6102ce610847565b6040516102db9190612fb9565b60405180910390f35b6102fe60048036038101906102f99190612908565b610851565b60405161030b9190612fb9565b60405180910390f35b61032e60048036038101906103299190612796565b6108f6565b005b610338610916565b6040516103459190612d9c565b60405180910390f35b610368600480360381019061036391906129a2565b6109ca565b6040516103759190612db7565b60405180910390f35b610398600480360381019061039391906129a2565b610a70565b6040516103a59190612fb9565b60405180910390f35b6103c860048036038101906103c391906129a2565b610ae1565b6040516103d59190612d35565b60405180910390f35b6103f860048036038101906103f391906129a2565b610b93565b6040516104059190612db7565b60405180910390f35b61042860048036038101906104239190612729565b610c3b565b6040516104359190612fb9565b60405180910390f35b610446610cf3565b005b610462600480360381019061045d91906129a2565b610d07565b005b61046c610d68565b6040516104799190612fb9565b60405180910390f35b61048a610d72565b6040516104979190612d35565b60405180910390f35b6104a8610d9c565b6040516104b59190612db7565b60405180910390f35b6104d860048036038101906104d3919061286c565b610e2e565b005b6104f460048036038101906104ef91906127e9565b610e44565b005b6104fe610ea6565b60405161050b9190612d35565b60405180910390f35b61052e600480360381019061052991906129a2565b610ed0565b60405161053b9190612db7565b60405180910390f35b61055e600480360381019061055991906128ac565b610f2e565b005b61057a60048036038101906105759190612729565b610f9a565b005b61059660048036038101906105919190612756565b610fe6565b6040516105a39190612d9c565b60405180910390f35b6105c660048036038101906105c19190612729565b61107a565b005b60006105d3826110fe565b9050919050565b6060600080546105e990613269565b80601f016020809104026020016040519081016040528092919081815260200182805461061590613269565b80156106625780601f1061063757610100808354040283529160200191610662565b820191906000526020600020905b81548152906001019060200180831161064557829003601f168201915b5050505050905090565b600061067782611178565b6004600083815260200190815260200160002060009054906101000a900473ffffffffffffffffffffffffffffffffffffffff169050919050565b60006106bd82610ae1565b90508073ffffffffffffffffffffffffffffffffffffffff168373ffffffffffffffffffffffffffffffffffffffff16141561072e576040517f08c379a000000000000000000000000000000000000000000000000000000000815260040161072590612f59565b60405180910390fd5b8073ffffffffffffffffffffffffffffffffffffffff1661074d6111c3565b73ffffffffffffffffffffffffffffffffffffffff16148061077c575061077b816107766111c3565b610fe6565b5b6107bb576040517f08c379a00000000000000000000000000000000000000000000000000000000081526004016107b290612ed9565b60405180910390fd5b6107c583836111cb565b505050565b60006107d533610c3b565b905090565b6000600880549050905090565b6107f86107f26111c3565b82611284565b610837576040517f08c379a000000000000000000000000000000000000000000000000000000000815260040161082e90612f99565b60405180910390fd5b610842838383611319565b505050565b6000600d54905090565b600061085c83610c3b565b821061089d576040517f08c379a000000000000000000000000000000000000000000000000000000000815260040161089490612dd9565b60405180910390fd5b600660008473ffffffffffffffffffffffffffffffffffffffff1673ffffffffffffffffffffffffffffffffffffffff168152602001908152602001600020600083815260200190815260200160002054905092915050565b61091183838360405180602001604052806000815250610e44565b505050565b600080600c60009054906101000a900473ffffffffffffffffffffffffffffffffffffffff1673ffffffffffffffffffffffffffffffffffffffff166370a08231336040518263ffffffff1660e01b81526004016109749190612d35565b60206040518083038186803b15801561098c57600080fd5b505afa1580156109a0573d6000803e3d6000fd5b505050506040513d601f19601f820116820180604052508101906109c491906129cf565b11905090565b600b6020528060005260406000206000915090508060000180546109ed90613269565b80601f0160208091040260200160405190810160405280929190818152602001828054610a1990613269565b8015610a665780601f10610a3b57610100808354040283529160200191610a66565b820191906000526020600020905b815481529060010190602001808311610a4957829003601f168201915b5050505050905081565b6000610a7a6107da565b8210610abb576040517f08c379a0000000000000000000000000000000000000000000000000000000008152600401610ab290612f79565b60405180910390fd5b60088281548110610acf57610ace6133d1565b5b90600052602060002001549050919050565b6000806002600084815260200190815260200160002060009054906101000a900473ffffffffffffffffffffffffffffffffffffffff169050600073ffffffffffffffffffffffffffffffffffffffff168173ffffffffffffffffffffffffffffffffffffffff161415610b8a576040517f08c379a0000000000000000000000000000000000000000000000000000000008152600401610b8190612f39565b60405180910390fd5b80915050919050565b6060600b60008381526020019081526020016000206000018054610bb690613269565b80601f0160208091040260200160405190810160405280929190818152602001828054610be290613269565b8015610c2f5780601f10610c0457610100808354040283529160200191610c2f565b820191906000526020600020905b815481529060010190602001808311610c1257829003601f168201915b50505050509050919050565b60008073ffffffffffffffffffffffffffffffffffffffff168273ffffffffffffffffffffffffffffffffffffffff161415610cac576040517f08c379a0000000000000000000000000000000000000000000000000000000008152600401610ca390612eb9565b60405180910390fd5b600360008373ffffffffffffffffffffffffffffffffffffffff1673ffffffffffffffffffffffffffffffffffffffff168152602001908152602001600020549050919050565b610cfb611580565b610d0560006115fe565b565b3373ffffffffffffffffffffffffffffffffffffffff16610d2782610ae1565b73ffffffffffffffffffffffffffffffffffffffff161415610d6557610d4c816116c4565b600e6000815480929190610d5f906132cc565b91905055505b50565b6000600e54905090565b6000600a60009054906101000a900473ffffffffffffffffffffffffffffffffffffffff16905090565b606060018054610dab90613269565b80601f0160208091040260200160405190810160405280929190818152602001828054610dd790613269565b8015610e245780601f10610df957610100808354040283529160200191610e24565b820191906000526020600020905b815481529060010190602001808311610e0757829003601f168201915b5050505050905090565b610e40610e396111c3565b83836116d0565b5050565b610e55610e4f6111c3565b83611284565b610e94576040517f08c379a0000000000000000000000000000000000000000000000000000000008152600401610e8b90612f99565b60405180910390fd5b610ea08484848461183d565b50505050565b6000600c60009054906101000a900473ffffffffffffffffffffffffffffffffffffffff16905090565b60606000610f04610ee084610b93565b604051602001610ef09190612cfc565b604051602081830303815290604052611899565b905080604051602001610f179190612d13565b604051602081830303815290604052915050919050565b610f3a82600d54611a12565b604051806020016040528082815250600b6000600d5481526020019081526020016000206000820151816000019080519060200190610f7a929190612528565b50905050600d6000815480929190610f91906132cc565b91905055505050565b610fa2611580565b80600c60006101000a81548173ffffffffffffffffffffffffffffffffffffffff021916908373ffffffffffffffffffffffffffffffffffffffff16021790555050565b6000600560008473ffffffffffffffffffffffffffffffffffffffff1673ffffffffffffffffffffffffffffffffffffffff16815260200190815260200160002060008373ffffffffffffffffffffffffffffffffffffffff1673ffffffffffffffffffffffffffffffffffffffff16815260200190815260200160002060009054906101000a900460ff16905092915050565b611082611580565b600073ffffffffffffffffffffffffffffffffffffffff168173ffffffffffffffffffffffffffffffffffffffff1614156110f2576040517f08c379a00000000000000000000000000000000000000000000000000000000081526004016110e990612e19565b60405180910390fd5b6110fb816115fe565b50565b60007f780e9d63000000000000000000000000000000000000000000000000000000007bffffffffffffffffffffffffffffffffffffffffffffffffffffffff1916827bffffffffffffffffffffffffffffffffffffffffffffffffffffffff19161480611171575061117082611a30565b5b9050919050565b61118181611b12565b6111c0576040517f08c379a00000000000000000000000000000000000000000000000000000000081526004016111b790612f39565b60405180910390fd5b50565b600033905090565b816004600083815260200190815260200160002060006101000a81548173ffffffffffffffffffffffffffffffffffffffff021916908373ffffffffffffffffffffffffffffffffffffffff160217905550808273ffffffffffffffffffffffffffffffffffffffff1661123e83610ae1565b73ffffffffffffffffffffffffffffffffffffffff167f8c5be1e5ebec7d5bd14f71427d1e84f3dd0314c0f7b2291e5b200ac8c7c3b92560405160405180910390a45050565b60008061129083610ae1565b90508073ffffffffffffffffffffffffffffffffffffffff168473ffffffffffffffffffffffffffffffffffffffff1614806112d257506112d18185610fe6565b5b8061131057508373ffffffffffffffffffffffffffffffffffffffff166112f88461066c565b73ffffffffffffffffffffffffffffffffffffffff16145b91505092915050565b8273ffffffffffffffffffffffffffffffffffffffff1661133982610ae1565b73ffffffffffffffffffffffffffffffffffffffff161461138f576040517f08c379a000000000000000000000000000000000000000000000000000000000815260040161138690612e39565b60405180910390fd5b600073ffffffffffffffffffffffffffffffffffffffff168273ffffffffffffffffffffffffffffffffffffffff1614156113ff576040517f08c379a00000000000000000000000000000000000000000000000000000000081526004016113f690612e79565b60405180910390fd5b61140a838383611b7e565b6114156000826111cb565b6001600360008573ffffffffffffffffffffffffffffffffffffffff1673ffffffffffffffffffffffffffffffffffffffff1681526020019081526020016000206000828254611465919061317f565b925050819055506001600360008473ffffffffffffffffffffffffffffffffffffffff1673ffffffffffffffffffffffffffffffffffffffff16815260200190815260200160002060008282546114bc919061309e565b92505081905550816002600083815260200190815260200160002060006101000a81548173ffffffffffffffffffffffffffffffffffffffff021916908373ffffffffffffffffffffffffffffffffffffffff160217905550808273ffffffffffffffffffffffffffffffffffffffff168473ffffffffffffffffffffffffffffffffffffffff167fddf252ad1be2c89b69c2b068fc378daa952ba7f163c4a11628f55a4df523b3ef60405160405180910390a461157b838383611b8e565b505050565b6115886111c3565b73ffffffffffffffffffffffffffffffffffffffff166115a6610d72565b73ffffffffffffffffffffffffffffffffffffffff16146115fc576040517f08c379a00000000000000000000000000000000000000000000000000000000081526004016115f390612f19565b60405180910390fd5b565b6000600a60009054906101000a900473ffffffffffffffffffffffffffffffffffffffff16905081600a60006101000a81548173ffffffffffffffffffffffffffffffffffffffff021916908373ffffffffffffffffffffffffffffffffffffffff1602179055508173ffffffffffffffffffffffffffffffffffffffff168173ffffffffffffffffffffffffffffffffffffffff167f8be0079c531659141344cd1fd0a4f28419497f9722a3daafe3b4186f6b6457e060405160405180910390a35050565b6116cd81611b93565b50565b8173ffffffffffffffffffffffffffffffffffffffff168373ffffffffffffffffffffffffffffffffffffffff16141561173f576040517f08c379a000000000000000000000000000000000000000000000000000000000815260040161173690612e99565b60405180910390fd5b80600560008573ffffffffffffffffffffffffffffffffffffffff1673ffffffffffffffffffffffffffffffffffffffff16815260200190815260200160002060008473ffffffffffffffffffffffffffffffffffffffff1673ffffffffffffffffffffffffffffffffffffffff16815260200190815260200160002060006101000a81548160ff0219169083151502179055508173ffffffffffffffffffffffffffffffffffffffff168373ffffffffffffffffffffffffffffffffffffffff167f17307eab39ab6107e8899845ad3d59bd9653f200f220920489ca2b5937696c31836040516118309190612d9c565b60405180910390a3505050565b611848848484611319565b61185484848484611cb0565b611893576040517f08c379a000000000000000000000000000000000000000000000000000000000815260040161188a90612df9565b60405180910390fd5b50505050565b60606000825114156118bc57604051806020016040528060008152509050611a0d565b60006040518060600160405280604081526020016138bd60409139905060006003600285516118eb919061309e565b6118f591906130f4565b60046119019190613125565b90506000602082611912919061309e565b67ffffffffffffffff81111561192b5761192a613400565b5b6040519080825280601f01601f19166020018201604052801561195d5781602001600182028036833780820191505090505b509050818152600183018586518101602084015b818310156119cc576003830192508251603f8160121c168501518253600182019150603f81600c1c168501518253600182019150603f8160061c168501518253600182019150603f8116850151825360018201915050611971565b6003895106600181146119e657600281146119f657611a01565b613d3d60f01b6002830352611a01565b603d60f81b60018303525b50505050508093505050505b919050565b611a2c828260405180602001604052806000815250611e47565b5050565b60007f80ac58cd000000000000000000000000000000000000000000000000000000007bffffffffffffffffffffffffffffffffffffffffffffffffffffffff1916827bffffffffffffffffffffffffffffffffffffffffffffffffffffffff19161480611afb57507f5b5e139f000000000000000000000000000000000000000000000000000000007bffffffffffffffffffffffffffffffffffffffffffffffffffffffff1916827bffffffffffffffffffffffffffffffffffffffffffffffffffffffff1916145b80611b0b5750611b0a82611ea2565b5b9050919050565b60008073ffffffffffffffffffffffffffffffffffffffff166002600084815260200190815260200160002060009054906101000a900473ffffffffffffffffffffffffffffffffffffffff1673ffffffffffffffffffffffffffffffffffffffff1614159050919050565b611b89838383611f0c565b505050565b505050565b6000611b9e82610ae1565b9050611bac81600084611b7e565b611bb76000836111cb565b6001600360008373ffffffffffffffffffffffffffffffffffffffff1673ffffffffffffffffffffffffffffffffffffffff1681526020019081526020016000206000828254611c07919061317f565b925050819055506002600083815260200190815260200160002060006101000a81549073ffffffffffffffffffffffffffffffffffffffff021916905581600073ffffffffffffffffffffffffffffffffffffffff168273ffffffffffffffffffffffffffffffffffffffff167fddf252ad1be2c89b69c2b068fc378daa952ba7f163c4a11628f55a4df523b3ef60405160405180910390a4611cac81600084611b8e565b5050565b6000611cd18473ffffffffffffffffffffffffffffffffffffffff16612020565b15611e3a578373ffffffffffffffffffffffffffffffffffffffff1663150b7a02611cfa6111c3565b8786866040518563ffffffff1660e01b8152600401611d1c9493929190612d50565b602060405180830381600087803b158015611d3657600080fd5b505af1925050508015611d6757506040513d601f19601f82011682018060405250810190611d649190612975565b60015b611dea573d8060008114611d97576040519150601f19603f3d011682016040523d82523d6000602084013e611d9c565b606091505b50600081511415611de2576040517f08c379a0000000000000000000000000000000000000000000000000000000008152600401611dd990612df9565b60405180910390fd5b805181602001fd5b63150b7a0260e01b7bffffffffffffffffffffffffffffffffffffffffffffffffffffffff1916817bffffffffffffffffffffffffffffffffffffffffffffffffffffffff191614915050611e3f565b600190505b949350505050565b611e518383612043565b611e5e6000848484611cb0565b611e9d576040517f08c379a0000000000000000000000000000000000000000000000000000000008152600401611e9490612df9565b60405180910390fd5b505050565b60007f01ffc9a7000000000000000000000000000000000000000000000000000000007bffffffffffffffffffffffffffffffffffffffffffffffffffffffff1916827bffffffffffffffffffffffffffffffffffffffffffffffffffffffff1916149050919050565b611f1783838361221d565b600073ffffffffffffffffffffffffffffffffffffffff168373ffffffffffffffffffffffffffffffffffffffff161415611f5a57611f5581612222565b611f99565b8173ffffffffffffffffffffffffffffffffffffffff168373ffffffffffffffffffffffffffffffffffffffff1614611f9857611f97838261226b565b5b5b600073ffffffffffffffffffffffffffffffffffffffff168273ffffffffffffffffffffffffffffffffffffffff161415611fdc57611fd7816123d8565b61201b565b8273ffffffffffffffffffffffffffffffffffffffff168273ffffffffffffffffffffffffffffffffffffffff161461201a5761201982826124a9565b5b5b505050565b6000808273ffffffffffffffffffffffffffffffffffffffff163b119050919050565b600073ffffffffffffffffffffffffffffffffffffffff168273ffffffffffffffffffffffffffffffffffffffff1614156120b3576040517f08c379a00000000000000000000000000000000000000000000000000000000081526004016120aa90612ef9565b60405180910390fd5b6120bc81611b12565b156120fc576040517f08c379a00000000000000000000000000000000000000000000000000000000081526004016120f390612e59565b60405180910390fd5b61210860008383611b7e565b6001600360008473ffffffffffffffffffffffffffffffffffffffff1673ffffffffffffffffffffffffffffffffffffffff1681526020019081526020016000206000828254612158919061309e565b92505081905550816002600083815260200190815260200160002060006101000a81548173ffffffffffffffffffffffffffffffffffffffff021916908373ffffffffffffffffffffffffffffffffffffffff160217905550808273ffffffffffffffffffffffffffffffffffffffff16600073ffffffffffffffffffffffffffffffffffffffff167fddf252ad1be2c89b69c2b068fc378daa952ba7f163c4a11628f55a4df523b3ef60405160405180910390a461221960008383611b8e565b5050565b505050565b6008805490506009600083815260200190815260200160002081905550600881908060018154018082558091505060019003906000526020600020016000909190919091505550565b6000600161227884610c3b565b612282919061317f565b9050600060076000848152602001908152602001600020549050818114612367576000600660008673ffffffffffffffffffffffffffffffffffffffff1673ffffffffffffffffffffffffffffffffffffffff168152602001908152602001600020600084815260200190815260200160002054905080600660008773ffffffffffffffffffffffffffffffffffffffff1673ffffffffffffffffffffffffffffffffffffffff168152602001908152602001600020600084815260200190815260200160002081905550816007600083815260200190815260200160002081905550505b6007600084815260200190815260200160002060009055600660008573ffffffffffffffffffffffffffffffffffffffff1673ffffffffffffffffffffffffffffffffffffffff16815260200190815260200160002060008381526020019081526020016000206000905550505050565b600060016008805490506123ec919061317f565b905060006009600084815260200190815260200160002054905060006008838154811061241c5761241b6133d1565b5b90600052602060002001549050806008838154811061243e5761243d6133d1565b5b90600052602060002001819055508160096000838152602001908152602001600020819055506009600085815260200190815260200160002060009055600880548061248d5761248c6133a2565b5b6001900381819060005260206000200160009055905550505050565b60006124b483610c3b565b905081600660008573ffffffffffffffffffffffffffffffffffffffff1673ffffffffffffffffffffffffffffffffffffffff168152602001908152602001600020600083815260200190815260200160002081905550806007600084815260200190815260200160002081905550505050565b82805461253490613269565b90600052602060002090601f016020900481019282612556576000855561259d565b82601f1061256f57805160ff191683800117855561259d565b8280016001018555821561259d579182015b8281111561259c578251825591602001919060010190612581565b5b5090506125aa91906125ae565b5090565b5b808211156125c75760008160009055506001016125af565b5090565b60006125de6125d984612ff9565b612fd4565b9050828152602081018484840111156125fa576125f9613434565b5b612605848285613227565b509392505050565b600061262061261b8461302a565b612fd4565b90508281526020810184848401111561263c5761263b613434565b5b612647848285613227565b509392505050565b60008135905061265e81613860565b92915050565b60008135905061267381613877565b92915050565b6000813590506126888161388e565b92915050565b60008151905061269d8161388e565b92915050565b600082601f8301126126b8576126b761342f565b5b81356126c88482602086016125cb565b91505092915050565b600082601f8301126126e6576126e561342f565b5b81356126f684826020860161260d565b91505092915050565b60008135905061270e816138a5565b92915050565b600081519050612723816138a5565b92915050565b60006020828403121561273f5761273e61343e565b5b600061274d8482850161264f565b91505092915050565b6000806040838503121561276d5761276c61343e565b5b600061277b8582860161264f565b925050602061278c8582860161264f565b9150509250929050565b6000806000606084860312156127af576127ae61343e565b5b60006127bd8682870161264f565b93505060206127ce8682870161264f565b92505060406127df868287016126ff565b9150509250925092565b600080600080608085870312156128035761280261343e565b5b60006128118782880161264f565b94505060206128228782880161264f565b9350506040612833878288016126ff565b925050606085013567ffffffffffffffff81111561285457612853613439565b5b612860878288016126a3565b91505092959194509250565b600080604083850312156128835761288261343e565b5b60006128918582860161264f565b92505060206128a285828601612664565b9150509250929050565b600080604083850312156128c3576128c261343e565b5b60006128d18582860161264f565b925050602083013567ffffffffffffffff8111156128f2576128f1613439565b5b6128fe858286016126d1565b9150509250929050565b6000806040838503121561291f5761291e61343e565b5b600061292d8582860161264f565b925050602061293e858286016126ff565b9150509250929050565b60006020828403121561295e5761295d61343e565b5b600061296c84828501612679565b91505092915050565b60006020828403121561298b5761298a61343e565b5b60006129998482850161268e565b91505092915050565b6000602082840312156129b8576129b761343e565b5b60006129c6848285016126ff565b91505092915050565b6000602082840312156129e5576129e461343e565b5b60006129f384828501612714565b91505092915050565b612a05816131b3565b82525050565b612a14816131c5565b82525050565b6000612a258261305b565b612a2f8185613071565b9350612a3f818560208601613236565b612a4881613443565b840191505092915050565b6000612a5e82613066565b612a688185613082565b9350612a78818560208601613236565b612a8181613443565b840191505092915050565b6000612a9782613066565b612aa18185613093565b9350612ab1818560208601613236565b80840191505092915050565b6000612aca602b83613082565b9150612ad582613454565b604082019050919050565b6000612aed603283613082565b9150612af8826134a3565b604082019050919050565b6000612b10602683613082565b9150612b1b826134f2565b604082019050919050565b6000612b33602583613082565b9150612b3e82613541565b604082019050919050565b6000612b56601c83613082565b9150612b6182613590565b602082019050919050565b6000612b79602483613082565b9150612b84826135b9565b604082019050919050565b6000612b9c601983613082565b9150612ba782613608565b602082019050919050565b6000612bbf602983613082565b9150612bca82613631565b604082019050919050565b6000612be2603e83613082565b9150612bed82613680565b604082019050919050565b6000612c05602083613082565b9150612c10826136cf565b602082019050919050565b6000612c28602083613082565b9150612c33826136f8565b602082019050919050565b6000612c4b601883613082565b9150612c5682613721565b602082019050919050565b6000612c6e602183613082565b9150612c798261374a565b604082019050919050565b6000612c91601d83613093565b9150612c9c82613799565b601d82019050919050565b6000612cb4602c83613082565b9150612cbf826137c2565b604082019050919050565b6000612cd7602e83613082565b9150612ce282613811565b604082019050919050565b612cf68161321d565b82525050565b6000612d088284612a8c565b915081905092915050565b6000612d1e82612c84565b9150612d2a8284612a8c565b915081905092915050565b6000602082019050612d4a60008301846129fc565b92915050565b6000608082019050612d6560008301876129fc565b612d7260208301866129fc565b612d7f6040830185612ced565b8181036060830152612d918184612a1a565b905095945050505050565b6000602082019050612db16000830184612a0b565b92915050565b60006020820190508181036000830152612dd18184612a53565b905092915050565b60006020820190508181036000830152612df281612abd565b9050919050565b60006020820190508181036000830152612e1281612ae0565b9050919050565b60006020820190508181036000830152612e3281612b03565b9050919050565b60006020820190508181036000830152612e5281612b26565b9050919050565b60006020820190508181036000830152612e7281612b49565b9050919050565b60006020820190508181036000830152612e9281612b6c565b9050919050565b60006020820190508181036000830152612eb281612b8f565b9050919050565b60006020820190508181036000830152612ed281612bb2565b9050919050565b60006020820190508181036000830152612ef281612bd5565b9050919050565b60006020820190508181036000830152612f1281612bf8565b9050919050565b60006020820190508181036000830152612f3281612c1b565b9050919050565b60006020820190508181036000830152612f5281612c3e565b9050919050565b60006020820190508181036000830152612f7281612c61565b9050919050565b60006020820190508181036000830152612f9281612ca7565b9050919050565b60006020820190508181036000830152612fb281612cca565b9050919050565b6000602082019050612fce6000830184612ced565b92915050565b6000612fde612fef565b9050612fea828261329b565b919050565b6000604051905090565b600067ffffffffffffffff82111561301457613013613400565b5b61301d82613443565b9050602081019050919050565b600067ffffffffffffffff82111561304557613044613400565b5b61304e82613443565b9050602081019050919050565b600081519050919050565b600081519050919050565b600082825260208201905092915050565b600082825260208201905092915050565b600081905092915050565b60006130a98261321d565b91506130b48361321d565b9250827fffffffffffffffffffffffffffffffffffffffffffffffffffffffffffffffff038211156130e9576130e8613315565b5b828201905092915050565b60006130ff8261321d565b915061310a8361321d565b92508261311a57613119613344565b5b828204905092915050565b60006131308261321d565b915061313b8361321d565b9250817fffffffffffffffffffffffffffffffffffffffffffffffffffffffffffffffff048311821515161561317457613173613315565b5b828202905092915050565b600061318a8261321d565b91506131958361321d565b9250828210156131a8576131a7613315565b5b828203905092915050565b60006131be826131fd565b9050919050565b60008115159050919050565b60007fffffffff0000000000000000000000000000000000000000000000000000000082169050919050565b600073ffffffffffffffffffffffffffffffffffffffff82169050919050565b6000819050919050565b82818337600083830152505050565b60005b83811015613254578082015181840152602081019050613239565b83811115613263576000848401525b50505050565b6000600282049050600182168061328157607f821691505b6020821081141561329557613294613373565b5b50919050565b6132a482613443565b810181811067ffffffffffffffff821117156132c3576132c2613400565b5b80604052505050565b60006132d78261321d565b91507fffffffffffffffffffffffffffffffffffffffffffffffffffffffffffffffff82141561330a57613309613315565b5b600182019050919050565b7f4e487b7100000000000000000000000000000000000000000000000000000000600052601160045260246000fd5b7f4e487b7100000000000000000000000000000000000000000000000000000000600052601260045260246000fd5b7f4e487b7100000000000000000000000000000000000000000000000000000000600052602260045260246000fd5b7f4e487b7100000000000000000000000000000000000000000000000000000000600052603160045260246000fd5b7f4e487b7100000000000000000000000000000000000000000000000000000000600052603260045260246000fd5b7f4e487b7100000000000000000000000000000000000000000000000000000000600052604160045260246000fd5b600080fd5b600080fd5b600080fd5b600080fd5b6000601f19601f8301169050919050565b7f455243373231456e756d657261626c653a206f776e657220696e646578206f7560008201527f74206f6620626f756e6473000000000000000000000000000000000000000000602082015250565b7f4552433732313a207472616e7366657220746f206e6f6e20455243373231526560008201527f63656976657220696d706c656d656e7465720000000000000000000000000000602082015250565b7f4f776e61626c653a206e6577206f776e657220697320746865207a65726f206160008201527f6464726573730000000000000000000000000000000000000000000000000000602082015250565b7f4552433732313a207472616e736665722066726f6d20696e636f72726563742060008201527f6f776e6572000000000000000000000000000000000000000000000000000000602082015250565b7f4552433732313a20746f6b656e20616c7265616479206d696e74656400000000600082015250565b7f4552433732313a207472616e7366657220746f20746865207a65726f2061646460008201527f7265737300000000000000000000000000000000000000000000000000000000602082015250565b7f4552433732313a20617070726f766520746f2063616c6c657200000000000000600082015250565b7f4552433732313a2061646472657373207a65726f206973206e6f74206120766160008201527f6c6964206f776e65720000000000000000000000000000000000000000000000602082015250565b7f4552433732313a20617070726f76652063616c6c6572206973206e6f7420746f60008201527f6b656e206f776e6572206e6f7220617070726f76656420666f7220616c6c0000602082015250565b7f4552433732313a206d696e7420746f20746865207a65726f2061646472657373600082015250565b7f4f776e61626c653a2063616c6c6572206973206e6f7420746865206f776e6572600082015250565b7f4552433732313a20696e76616c696420746f6b656e2049440000000000000000600082015250565b7f4552433732313a20617070726f76616c20746f2063757272656e74206f776e6560008201527f7200000000000000000000000000000000000000000000000000000000000000602082015250565b7f646174613a6170706c69636174696f6e2f6a736f6e3b6261736536342c000000600082015250565b7f455243373231456e756d657261626c653a20676c6f62616c20696e646578206f60008201527f7574206f6620626f756e64730000000000000000000000000000000000000000602082015250565b7f4552433732313a2063616c6c6572206973206e6f7420746f6b656e206f776e6560008201527f72206e6f7220617070726f766564000000000000000000000000000000000000602082015250565b613869816131b3565b811461387457600080fd5b50565b613880816131c5565b811461388b57600080fd5b50565b613897816131d1565b81146138a257600080fd5b50565b6138ae8161321d565b81146138b957600080fd5b5056fe4142434445464748494a4b4c4d4e4f505152535455565758595a6162636465666768696a6b6c6d6e6f707172737475767778797a303132333435363738392b2fa26469706673582212209d51f82223b10ccc873d26d9c13bf135ce30d3eb511bbd92d0a50b71c0c6e4a864736f6c63430008070033",
  "linkReferences": {},
  "deployedLinkReferences": {}
}